{
  "contractName": "VotingSystem",
  "abi": [
    {
      "inputs": [],
      "payable": false,
      "stateMutability": "nonpayable",
      "type": "constructor"
    },
    {
      "anonymous": false,
      "inputs": [
        {
          "indexed": false,
          "internalType": "uint256",
          "name": "id",
          "type": "uint256"
        },
        {
          "indexed": false,
          "internalType": "string",
          "name": "name",
          "type": "string"
        },
        {
          "indexed": false,
          "internalType": "uint256",
          "name": "votes",
          "type": "uint256"
        }
      ],
      "name": "CandidateAdded",
      "type": "event"
    },
    {
      "anonymous": false,
      "inputs": [
        {
          "indexed": false,
          "internalType": "bool",
          "name": "val",
          "type": "bool"
        }
      ],
      "name": "showVoteChanged",
      "type": "event"
    },
    {
      "anonymous": false,
      "inputs": [
        {
          "indexed": true,
          "internalType": "uint256",
          "name": "_candidateId",
          "type": "uint256"
        }
      ],
      "name": "votedEvent",
      "type": "event"
    },
    {
      "constant": true,
      "inputs": [],
      "name": "CandidateCount",
      "outputs": [
        {
          "internalType": "uint256",
          "name": "",
          "type": "uint256"
        }
      ],
      "payable": false,
      "stateMutability": "view",
      "type": "function"
    },
    {
      "constant": true,
      "inputs": [
        {
          "internalType": "uint256",
          "name": "",
          "type": "uint256"
        }
      ],
      "name": "candidates",
      "outputs": [
        {
          "internalType": "uint256",
          "name": "id",
          "type": "uint256"
        },
        {
          "internalType": "string",
          "name": "name",
          "type": "string"
        },
        {
          "internalType": "uint256",
          "name": "votes",
          "type": "uint256"
        }
      ],
      "payable": false,
      "stateMutability": "view",
      "type": "function"
    },
    {
      "constant": true,
      "inputs": [],
      "name": "showVotes",
      "outputs": [
        {
          "internalType": "bool",
          "name": "",
          "type": "bool"
        }
      ],
      "payable": false,
      "stateMutability": "view",
      "type": "function"
    },
    {
      "constant": true,
      "inputs": [
        {
          "internalType": "address",
          "name": "",
          "type": "address"
        }
      ],
      "name": "voters",
      "outputs": [
        {
          "internalType": "bool",
          "name": "",
          "type": "bool"
        }
      ],
      "payable": false,
      "stateMutability": "view",
      "type": "function"
    },
    {
      "constant": false,
      "inputs": [
        {
          "internalType": "string",
          "name": "_name",
          "type": "string"
        }
      ],
      "name": "addCandidate",
      "outputs": [],
      "payable": false,
      "stateMutability": "nonpayable",
      "type": "function"
    },
    {
      "constant": false,
      "inputs": [
        {
          "internalType": "uint256",
          "name": "_candidateId",
          "type": "uint256"
        }
      ],
      "name": "vote",
      "outputs": [],
      "payable": false,
      "stateMutability": "nonpayable",
      "type": "function"
    },
    {
      "constant": false,
      "inputs": [
        {
          "internalType": "bool",
          "name": "_val",
          "type": "bool"
        }
      ],
      "name": "changeShowVote",
      "outputs": [],
      "payable": false,
      "stateMutability": "nonpayable",
      "type": "function"
    }
  ],
  "bytecode": "0x6080604052600080556001805460ff19168117905534801561002057600080fd5b506040805180820190915260048152634e4f544160e01b602082015261004e906001600160e01b0361005316565b6101f9565b6000805460019081018083556040805160608101825282815260208082018781528284018790529386526003815291909420845181559151805192936100a19390850192919091019061015e565b50604082015181600201559050507fc0a81c9aad7f882e7dd72db314924227026255cc5ad0164435df572dec8c804d6000548260006040518084815260200180602001838152602001828103825284818151815260200191508051906020019080838360005b8381101561011f578181015183820152602001610107565b50505050905090810190601f16801561014c5780820380516001836020036101000a031916815260200191505b5094505050505060405180910390a150565b828054600181600116156101000203166002900490600052602060002090601f016020900481019282601f1061019f57805160ff19168380011785556101cc565b828001600101855582156101cc579182015b828111156101cc5782518255916020019190600101906101b1565b506101d89291506101dc565b5090565b6101f691905b808211156101d857600081556001016101e2565b90565b6105ee806102086000396000f3fe608060405234801561001057600080fd5b506004361061007d5760003560e01c80638dd32e151161005b5780638dd32e15146101ea578063a3ec138d14610204578063a5e9e0251461023e578063e2125a1f1461025d5761007d565b80630121b93f146100825780633477ee2e146100a1578063462e91ec14610144575b600080fd5b61009f6004803603602081101561009857600080fd5b5035610265565b005b6100be600480360360208110156100b757600080fd5b50356102fb565b6040518084815260200180602001838152602001828103825284818151815260200191508051906020019080838360005b838110156101075781810151838201526020016100ef565b50505050905090810190601f1680156101345780820380516001836020036101000a031916815260200191505b5094505050505060405180910390f35b61009f6004803603602081101561015a57600080fd5b81019060208101813564010000000081111561017557600080fd5b82018360208201111561018757600080fd5b803590602001918460018302840111640100000000831117156101a957600080fd5b91908080601f0160208091040260200160405190810160405280939291908181526020018383808284376000920191909152509295506103a8945050505050565b6101f26104b3565b60408051918252519081900360200190f35b61022a6004803603602081101561021a57600080fd5b50356001600160a01b03166104b9565b604080519115158252519081900360200190f35b61009f6004803603602081101561025457600080fd5b503515156104ce565b61022a610515565b3360009081526002602052604090205460ff161561028257600080fd5b60008111801561029457506000548111155b61029d57600080fd5b336000908152600260208181526040808420805460ff191660019081179091558585526003909252808420909201805490910190555182917ffff3c900d938d21d0990d786e819f29b8d05c1ef587b462b939609625b684b1691a250565b6003602090815260009182526040918290208054600180830180548651600293821615610100026000190190911692909204601f8101869004860283018601909652858252919492939092908301828280156103985780601f1061036d57610100808354040283529160200191610398565b820191906000526020600020905b81548152906001019060200180831161037b57829003601f168201915b5050505050908060020154905083565b6000805460019081018083556040805160608101825282815260208082018781528284018790529386526003815291909420845181559151805192936103f69390850192919091019061051e565b50604082015181600201559050507fc0a81c9aad7f882e7dd72db314924227026255cc5ad0164435df572dec8c804d6000548260006040518084815260200180602001838152602001828103825284818151815260200191508051906020019080838360005b8381101561047457818101518382015260200161045c565b50505050905090810190601f1680156104a15780820380516001836020036101000a031916815260200191505b5094505050505060405180910390a150565b60005481565b60026020526000908152604090205460ff1681565b6001805482151560ff19909116811790915560408051918252517fe370704cc9e7c531f31628fe7b8e9eb6ed94a88cd79e44257e5aec2188099fe39181900360200190a150565b60015460ff1681565b828054600181600116156101000203166002900490600052602060002090601f016020900481019282601f1061055f57805160ff191683800117855561058c565b8280016001018555821561058c579182015b8281111561058c578251825591602001919060010190610571565b5061059892915061059c565b5090565b6105b691905b8082111561059857600081556001016105a2565b9056fea265627a7a72315820b424dfb1e67a914e54a0455076612b789ec500bfdf77f17e79b7f2dfbb778f3764736f6c63430005100032",
  "source": "pragma solidity ^0.5.0;\n\ncontract VotingSystem {\n\n    uint public CandidateCount = 0;\n    bool public showVotes = true;\n\n    struct Candidate {\n        uint id;\n        string name;\n        uint votes;\n    }\n\n    //store accounts that have voted\n    mapping(address=> bool) public voters;\n    //store candidates\n    mapping(uint=> Candidate) public candidates;\n\n    event CandidateAdded(\n        uint id,\n        string name,\n        uint votes\n    );\n\n\n    event votedEvent (\n        uint indexed _candidateId\n    );\n\n    event showVoteChanged (\n        bool val\n    );\n\n    constructor() public{\n        addCandidate(\"NOTA\");\n    }\n\n    function addCandidate(string memory _name) public {\n        CandidateCount++;\n        candidates[CandidateCount] = Candidate(CandidateCount, _name, 0);\n        emit CandidateAdded(CandidateCount, _name, 0);\n    }\n\n    function vote(uint _candidateId) public {\n\n        //require that the have not voted before\n        require(!voters[msg.sender]);\n        //require a valid candidate\n        require(_candidateId>0 && _candidateId<=CandidateCount);\n        //msg.sender contains the voters id\n        //record that voter has voted\n        voters[msg.sender]=true;\n        candidates[_candidateId].votes++;\n        emit votedEvent (_candidateId);\n    }\n\n    function changeShowVote (bool _val) public {\n        showVotes = _val;\n        emit showVoteChanged(_val);\n    }\n}",
  "sourcePath": "/Users/pranavgupta/Documents/pranav fork/evoting2.0/contracts/VotingSystem.sol",
  "compiler": {
    "name": "solc",
    "version": "0.5.16+commit.9c3226ce.Emscripten.clang"
  },
  "schemaVersion": "3.4.3",
  "updatedAt": "2022-05-06T11:45:44.200Z",
  "networkType": "ethereum",
  "devdoc": {
    "methods": {}
  },
  "userdoc": {
    "methods": {}
  }
}